:10000000B2EF00F08E0E006E0EC001F00DC002F0D7
:10001000036A015209E102C001F0026A080E005EA3
:10002000015202E1006A08D0D89001BE04D0023625
:1000300001360006F9D7019E12000D50D8B471D0D8
:10004000006E1150D8B46DD0002604E3810E002656
:1000500068E204D07F0E005E64E363E00EC015F03A
:100060001250151A0E8E128E10501402F4CF17F083
:100070000F501302F4CF03F0F3CF16F01402F35035
:100080001726F4501622000E032210501302F350CC
:100090001726F4501622000E026A032202220E5086
:1000A0001402F3501626F4500322000E02220E50C2
:1000B0001302F3500326F4500222000E016A0122BB
:1000C00010501202F3501626F4500322000E0222A2
:1000D00001220F501202F3500326F4500222000EA8
:1000E00001220E501202F3500226F4500122002A7F
:1000F00001BE05D016360336023601360006000E64
:1001000016AE0AD0032A02220122015005E1025054
:1001100003E1035001E1002A15BE018E15AE019ED8
:1001200004D0006A016A026A036A12008E0E006E31
:100130000D50005E0EC002F00FC001F0028E0052A2
:1001400009E0D890025202E1015204E00232013289
:10015000002EF7D70EAE05D0011E021E012AD8B41C
:10016000022A1200F86AD09EC150C00B0F09C16E5E
:10017000070EB46E030E926E946A0D0EC16E880E59
:10018000C06E0C0EBD6EBA6E070ECA6ECC6A1E0E25
:10019000CB6E066A056A086A076A0A6A096A0C6A07
:1001A0000B6A010EC26E060E006E002EFED7000016
:1001B000C282C2B2FED7C4CF06F0056AC35005267C
:1001C000000E062206C00EF005C00DF01BDF03C0B6
:1001D00010F002C00FF001C00EF000C00DF0220EB2
:1001E000146E6C0E136E780E126E7B0E116E25DF80
:1001F00003C010F002C00FF001C00EF000C00DF0FF
:1002000095DF02C00AF001C009F00A30036E093020
:10021000026E0332023202C0BEFFBD9809B0BD8833
:10022000D8900A300930BD9AE8B0BD8A050EC26E7A
:10023000060E006E002EFED70000C282C2B2FED7AC
:10024000C4CF08F0076AC3500726000E082208C072
:100250000EF007C00DF0D6DE03C010F002C00FF0A4
:1002600001C00EF000C00DF0220E146E6C0E136E65
:10027000780E126E7B0E116EE0DE03C010F002C02D
:100280000FF001C00EF000C00DF050DF02C00CF006
:1002900001C00BF00C30036E0B30026E03320232E1
:1002A00002C0BBFFBA980BB0BA88D8900C30036E6E
:1002B0000B30026E016EBA9AE8B0BA8A72D70300A8
:020000040030CA
:0E00000039CC3E1E0087A1000FC00FE00F405C
:00000001FF
;PIC18F4550
;CRC=1B6C  CREATED="27-sep.-22 12:35"
